:1000000045C0000060C000005EC000005CC0000091
:100010005AC0000058C0000056C0000054C0000084
:1000200052C0000050C000004EC000004CC0000094
:100030004AC0000048C0000046C0000044C00000A4
:100040006DC2000040C000003EC000003CC0000087
:100050003AC0000038C0000036C0000034C00000C4
:1000600033C0000030C000002EC000002CC00000D3
:100070002AC0000028C0000026C0000024C00000E4
:1000800022C0000020C000001EC0000011241FBEBE
:10009000CFEFD0E4DEBFCDBF11E0A0E0B1E0E8E5F6
:1000A000F8E000E00BBF02C007900D92A438B10742
:1000B000D9F721E0A4E8B1E001C01D92A73AB20748
:1000C000E1F7C1D0C7C39CCF1F920F920FB60F921A
:1000D00011240BB60F922F938F939F93AF93BF93DF
:1000E000EF93FF93209178008091790090E0982F12
:1000F0008827822BACE7B0E0EC91E770F0E0EE0FE0
:10010000FF1FEF56FE4F918380838C91873439F423
:1001100080E480937C0081E08093840105C0ECE75B
:10012000F0E080818F5F8083EAE7F0E08081806487
:100130008083FF91EF91BF91AF919F918F912F910C
:100140000F900BBE0F900FBE0F901F90189588B1A7
:10015000886088B988EB8A95F1F7000088B1877FBD
:1001600088B9089514B88BB18B7F8BB98BB1886037
:100170008BB92F99FECFEBDF8FEF84B90895CF9322
:10018000C82FF0DFC5B98BB1837F8BB9E0DF14B81E
:1001900015B8CF910895CF93C82FE4DFC5B98BB1BF
:1001A000877F8BB98BB184608BB9D1DF14B815B858
:1001B000CF910895CF93DF93EC0102C02196EBDF3E
:1001C00088818111FBCFDF91CF910895E62FF0E078
:1001D000E150FF4F208130E020583F4F90E00197E1
:1001E000820FCDCF08958AB18C608AB987B18860BB
:1001F00087B98FEF91EA0197F1F700C0000081E025
:10020000BEDF89E995E10197F1F700C088E3B7DF28
:1002100098EB9A95F1F700008CE0B1DF88EB8A95B6
:10022000F1F7000081E0ABDF8FEF9BE60197F1F77C
:1002300000C00000089581E0A2DF89E995E10197FF
:10024000F1F700C0089587B1846087B9CCDF4DD144
:100250009FD0789461E081E0B9DF83E191E0AADF8B
:1002600056D1EC0163E081E0B1DFDD27CE01A2DFF2
:10027000C035D10509F478C044F4CB34D10509F474
:1002800037C0CC34D10501F1EBCFC335D10541F0F6
:10029000C435D10509F454C0C235D10509F73CC0B5
:1002A000CADF4091850164E68091040190D04091BD
:1002B000850164E6809186018AD061E081E086DF75
:1002C00080E291E077DFCCCFB6DF4091850164E139
:1002D000809104017CD04091850160E58091860188
:1002E00076D061E081E072DF8FE291E063DFB8CF2A
:1002F000A2DF409185016EE18091040168D04091B8
:10030000850165E58091860162D061E081E05EDF74
:1003100080E491E04FDFA4CF8EDF4091850160E55E
:100320008091040154D04091850164E1809186015F
:100330004ED061E081E04ADF82E591E03BDF90CF83
:100340007ADF4091850165E58091040140D04091BC
:1003500085016EE1809186013AD061E081E036DF6F
:1003600084E691E027DF7CCF66DF4091850160E085
:10037000809104012CD04091850160E0809186013C
:1003800026D061E081E022DF87E791E013DF68CFCC
:1003900087B1806F87B98AB180638AB9E0E8F0E0FD
:1003A0008081826A8083E1E8F0E080818A618083D5
:1003B00080EA9FE0909387008093860010928900E6
:1003C0001092880010928B0010928A000895CF92AC
:1003D000DF92EF92FF920F931F93CF93C42F81115F
:1003E00037C06623F9F08AB180628AB970E080E094
:1003F00090E03FD1009186001091870020E030E02E
:1004000048EC52E4A2D06B017C01B80180E090E09E
:1004100030D1A7019601BBD100D1709389006093C0
:10042000880003C08AB18F7D8AB9C11107C088B125
:10043000806488B988B18F7788B93FC0C13009F02E
:100440003CC088B18F7B88B988B1806888B935C0D5
:100450006623F9F08AB180618AB970E080E090E0AB
:1004600008D1009186001091870020E030E048EC30
:1004700052E46BD06B017C01B80180E090E0F9D0D0
:10048000A701960184D1C9D070938B0060938A0034
:1004900003C08AB18F7E8AB9C11107C088B180615B
:1004A00088B988B18F7D88B908C0C13031F488B16E
:1004B0008F7E88B988B1806288B9CF911F910F91E2
:1004C000FF90EF90DF90CF900895CF93C82F8A30A0
:1004D00011F48DE0FADF8091C00085FFFCCFC0935E
:1004E000C60080E090E0CF91089585E091E0909380
:1004F000A4018093A3011092C50083E38093C400FC
:1005000088E18093C1008EE08093C20008958091BD
:10051000C0008823E4F78091C60008951F920F92CF
:100520000FB60F9211248F939F9380918701909122
:100530008801019690938801809387019F918F9104
:100540000F900FBE0F901F9018950CD0E6C0DED014
:1005500040F0D5D030F021F45F3F19F0C7C0511101
:1005600010C1CAC0EBD098F39923C9F35523B1F356
:10057000951B550BBB27AA2762177307840738F012
:100580009F5F5F4F220F331F441FAA1FA9F333D071
:100590000E2E3AF0E0E830D091505040E695001C25
:1005A000CAF729D0FE2F27D0660F771F881FBB1FE1
:1005B000261737074807AB07B0E809F0BB0B802DBB
:1005C000BF01FF2793585F4F2AF09E3F510568F007
:1005D0008DC0D7C05F3FECF3983EDCF386957795EE
:1005E0006795B795F7959F5FC9F7880F911D969509
:1005F000879597F90895E1E0660F771F881FBB1F65
:10060000621773078407BA0720F0621B730B840B11
:10061000BA0BEE1F88F7E095089598D088F09F57A1
:1006200090F0B92F9927B751A0F0D1F0660F771F3E
:10063000881F991F1AF0BA95C9F712C0B13081F01E
:100640009FD0B1E008959CC0672F782F8827B85FAE
:1006500039F0B93FCCF3869577956795B395D9F77F
:100660003EF490958095709561957F4F8F4F9F4F89
:100670000895E89409C097FB3EF490958095709595
:1006800061957F4F8F4F9F4F9923A9F0F92F96E9DE
:10069000BB279395F695879577956795B795F11153
:1006A000F8CFFAF4BB0F11F460FF1BC06F5F7F4FF0
:1006B0008F4F9F4F16C0882311F096E911C0772302
:1006C00021F09EE8872F762F05C0662371F096E80B
:1006D000862F70E060E02AF09A95660F771F881FDA
:1006E000DAF7880F9695879597F9089597F99F6798
:1006F00080E870E060E008959FEF80EC08950024AA
:100700000A941616170618060906089500240A9476
:1007100012161306140605060895092E0394000CFC
:1007200011F4882352F0BB0F40F4BF2B11F460FF8B
:1007300004C06F5F7F4F8F4F9F4F089557FD9058B4
:10074000440F551F59F05F3F71F04795880F97FB95
:10075000991F61F09F3F79F087950895121613064F
:100760001406551FF2CF4695F1DF08C0161617067E
:100770001806991FF1CF86957105610508940895B3
:10078000E894BB2766277727CB0197F908950BD00C
:10079000C4CFB5DF28F0BADF18F0952309F0A6CF53
:1007A000ABCF1124EECFCADFA0F3959FD1F3950F05
:1007B00050E0551F629FF001729FBB27F00DB11DE5
:1007C000639FAA27F00DB11DAA1F649F6627B00D75
:1007D000A11D661F829F2227B00DA11D621F739F5E
:1007E000B00DA11D621F839FA00D611D221F749F6C
:1007F0003327A00D611D231F849F600D211D822FB3
:10080000762F6A2F11249F5750408AF0E1F08823F9
:100810004AF0EE0FFF1FBB1F661F771F881F915006
:100820005040A9F79E3F510570F060CFAACF5F3FBF
:10083000ECF3983EDCF3869577956795B795F79539
:10084000E7959F5FC1F7FE2B880F911D96958795C1
:0808500097F90895F894FFCF19
:10085800004014540100000002000000006502007E
:10086800000000476F6F64206D6F726E696E6700DD
:10087800476F696E672073747261696768740054A2
:1008880075726E696E67206C656674204E4F5700EE
:100898005475726E696E67206C65667420534C4F90
:1008A80057005475726E696E6720726967687420A4
:1008B8004E4F57005475726E696E6720726967688B
:1008C8007420534C4F570053746F7070696E672EC5
:0408D8002E2E0000C0
:00000001FF
